:10000000B2C00000D0C00000CEC00000CCC00000D4
:10001000CAC00000C8C00000C6C00000C4C00000C4
:10002000C2C00000C0C00000BEC00000BCC00000D4
:10003000BAC00000B8C00000B6C00000B4C00000E4
:10004000B2C00000B0C00000AEC00000ACC00000F4
:10005000AAC00000A8C00000A6C00000A4C0000004
:10006000A2C00000A0C000009EC000009CC0000014
:100070009AC0000098C0000096C0000094C0000024
:1000800092C0000090C000008EC000008CC0000034
:100090008AC0000088C0000086C0000084C0000044
:1000A00082C0000080C000007EC000007CC0000054
:1000B0007AC0000078C0000076C0000074C0000064
:1000C00072C0000070C000006EC0000016C20000C8
:1000D0006AC0000068C0000066C0000064C0000084
:1000E00062C0000007634236B79BD8A71A3968562A
:1000F00018AEBAAB558C1D3CB7CC5763BD6DEDFD4A
:10010000753EF6177231BF000000803F0800000006
:10011000BE922449123EABAAAA2ABECDCCCC4C3EFC
:1001200000000080BEABAAAAAA3E00000000BF00EB
:100130000000803F0000000000084178D3BB4387E7
:10014000D1133D190E3CC3BD4282AD2B3E68EC82FB
:1001500076BED98FE1A93E4C80EFFFBE01C4FF7F80
:100160003F000000000011241FBECFEFD1E2DEBF30
:10017000CDBF00E00CBF12E0A0E0B2E0E0EBF4E1A4
:1001800000E00BBF02C007900D92A630B107D9F76F
:1001900022E0A6E0B2E001C01D92A336B207E1F76B
:1001A00069D10C94560A2CCF98B19F7098B998B128
:1001B000282F207F922B98B940984198429AE1EEDF
:1001C000F4E03197F1F700C00000429898B19F70B9
:1001D00098B998B18295807F892B88B940984198C9
:1001E000429A81EE94E00197F1F700C00000429836
:1001F000089589EF90E00197F1F700C0000088E2D0
:10020000D3DF81E0D1DF86E0CFDF8EE0CDDF80E895
:10021000CBCF089598B19F7098B998B1282F207FBF
:10022000922B98B9409A4198429AE1EEF4E03197C6
:10023000F1F700C00000429898B19F7098B998B14A
:100240008295807F892B88B9409A4198429A81EEA5
:1002500094E00197F1F700C00000429808958230C1
:1002600069F018F4813031F00895833059F084300A
:1002700069F008958FE7860F97CF08958FEB860F6B
:1002800093CF089583E9860F8FCF089583ED860F6E
:100290008BCF089587B1876F87B988B1807888B987
:1002A0000895682F70E080E090E045D32FEE39ECA0
:1002B00043E95FE331D49B01AC0160E070E080E88A
:1002C0009FE3A0D22AE939EF4EE255E4C2D320E001
:1002D00030E040E251E4BDD3FDD2CB016132734046
:1002E00010F080E293E0089510BA11BA109207015D
:1002F0001092080108953B9A439808950F931F9315
:10030000CF93DF93809162028F93809161028F93EC
:1003100002E012E01F930F93CAE0D2E0DF93CF9385
:10032000EAD509900020E9F72197CA50D240DF931F
:10033000CF931F930F9385E392E09F938F93DBD529
:1003400080916202E6EDF0E080838091610280831B
:100350008DB79EB70C960FB6F8949EBF0FBE8DBF9B
:10036000DF91CF911F910F91089581B18F6081B975
:1003700082B1807F82B9EAE0F1E080818861808388
:10038000EBE0F1E0808188618083089592B1907FF5
:100390008F70982B92B9089586E0F8CF089589E080
:1003A000F5CF089585E0F2CF08958AE0EFCF089564
:1003B00080E0ECCF08956EDFD8DF9DDF95CF089504
:1003C000EAE7F0E0108210927B0080E280937C00EC
:1003D00080E880BF86E880830895E1E2F1E0108242
:1003E0008FEF8093250191E09093240110922901D1
:1003F0008093280110922B0180932A0110922D01E5
:1004000080932C0189EA809320018BE080830895FA
:10041000883018F098E090937B008770806280931A
:100420007C00EAE7F0E0808180648083808184FF43
:10043000FDCF80917900EAE7F0E0908190619083B0
:1004400010927B000895E1EDF0E010821092D00050
:1004500086E08093D2008FE58093D4001092D5007F
:1004600088E980830895F894A6DFB7DFA9DFEBDF82
:1004700078940895F8DFBDDE61E081E0F0DEFFCF23
:10048000CF93DF9384E492E011D5EC018BE192E00D
:100490000DD5C093280180932A011C161D063CF53A
:1004A000181619060CF578DF12C018161906C4F4D0
:1004B0007CDF0DC0992334F475DF09C0992314F44F
:1004C0006EDF05C0CD2B19F4892B09F471DF109272
:1004D000440210921B020EC01C161D065CF3F2CFE4
:1004E0001C161D065CF7E6CFDD23B4F7E3CFDD2352
:1004F000E4F2E8CFDF91CF9108951F920F920FB6EB
:100500000F9211240BB60F922F933F934F935F934B
:100510006F937F938F939F93AF93BF93EF93FF93CB
:100520008091D60080934302813631F484E070DFFD
:10053000809332028093D60080914302823631F458
:1005400085E066DF809332028093D600809143027B
:10055000833631F486E05CDF809332028093D600EC
:1005600080914302843631F487E052DF8093320277
:100570008093D60080914302853631F488E048DFCD
:10058000809332028093D60080914302833551F4E8
:100590008BE03EDF80935C0284DE90936202809366
:1005A0006102ACDE80914302843551F489E030DF92
:1005B00080935C0276DE90936202809361029EDEFD
:1005C00080914302853551F48DE022DF80935C02F7
:1005D00068DE909362028093610290DE8091430214
:1005E0008133B1F48091180290911902019709F0BA
:1005F00042C0EAE0F2E080818093D60001900020C2
:10060000E9F7EC50F24021F410921902109218020E
:10061000809143028233B1F48091180290911902C3
:10062000019709F044C0EAE0F2E081818093D600AE
:1006300001900020E9F7ED50F24021F410921902E8
:1006400010921802809143028333A9F4809118021A
:10065000909119020197D9F5EAE0F2E08281809346
:10066000D60001900020E9F7EE50F24021F41092FC
:10067000190210921802809143028433C1F48091D0
:10068000180290911902019709F0A1C0EAE0F2E086
:1006900083818093D60001900020E9F73197EA50DA
:1006A000F240349720F010921902109218028091B3
:1006B00043028D3661F481E090E0909307028093CD
:1006C000060210925B0210925A028DE6A3DD809121
:1006D000060290910702019741F5809108029091DE
:1006E0000902892B11F58091000290910102019776
:1006F000E1F4809143028D3609F440C0E4E4F2E075
:1007000001900020E9F73197E454F2409F012F5FF8
:100710003F4F30935B0220935A02EC5BFD4F808386
:10072000F901EC5BFD4F108275DD8091430283324D
:1007300081F481E090E09093090280930802109286
:1007400001021092000210925B0210925A0283E2A0
:1007500061DD80914302813289F481E090E09093E1
:100760000102809300021092090210920802109276
:1007700007021092060281E24DDD82DE80910802BE
:1007800090910902019759F5809100029091010220
:10079000892B29F580914302833209F13BDDEBE19E
:1007A000F2E001900020E9F73197EB51F240CF01E0
:1007B000019690935B0280935A02E55EFD4F209173
:1007C00043022083FC01E55EFD4F108208C080914A
:1007D000060290910702019709F0BBCF7ECFFF91EF
:1007E000EF91BF91AF919F918F917F916F915F91A9
:1007F0004F913F912F910F900BBE0F900FBE0F9016
:100800001F9018950CD0EBC0E3D040F0DAD030F058
:1008100021F45F3F19F0CCC0511115C1CFC0F0D009
:1008200098F39923C9F35523B1F3951B550BBB27B7
:10083000AA2762177307840738F09F5F5F4F220F64
:10084000331F441FAA1FA9F333D00E2E3AF0E0E85D
:1008500030D091505040E695001CCAF729D0FE2FA9
:1008600027D0660F771F881FBB1F2617370748073B
:10087000AB07B0E809F0BB0B802DBF01FF279358F1
:100880005F4F2AF09E3F510568F092C0DCC05F3F89
:10089000ECF3983EDCF3869577956795B795F795D9
:1008A0009F5FC9F7880F911D9695879597F90895D1
:1008B000E1E0660F771F881FBB1F6217730784076D
:1008C000BA0720F0621B730B840BBA0BEE1F88F77C
:1008D000E095089504D06894B111B5C0089598D0FA
:1008E00088F09F5790F0B92F9927B751A0F0D1F019
:1008F000660F771F881F991F1AF0BA95C9F712C0A3
:10090000B13081F09FD0B1E008959CC0672F782F5F
:100910008827B85F39F0B93FCCF38695779567950E
:10092000B395D9F73EF490958095709561957F4F7A
:100930008F4F9F4F0895E89409C097FB3EF4909520
:100940008095709561957F4F8F4F9F4F9923A9F0A8
:10095000F92F96E9BB279395F69587957795679537
:10096000B795F111F8CFFAF4BB0F11F460FF1BC07B
:100970006F5F7F4F8F4F9F4F16C0882311F096E90E
:1009800011C0772321F09EE8872F762F05C06623BC
:1009900071F096E8862F70E060E02AF09A95660F75
:1009A000771F881FDAF7880F9695879597F908952E
:1009B00097F99F6780E870E060E008959FEF80EC12
:1009C000089500240A9416161706180609060895B5
:1009D00000240A9412161306140605060895092E1B
:1009E0000394000C11F4882352F0BB0F40F4BF2B8A
:1009F00011F460FF04C06F5F7F4F8F4F9F4F0895CA
:100A000057FD9058440F551F59F05F3F71F04795BF
:100A1000880F97FB991F61F09F3F79F087950895A4
:100A2000121613061406551FF2CF4695F1DF08C0C3
:100A3000161617061806991FF1CF869571056105E0
:100A400008940895E894BB2766277727CB0197F988
:100A500008950BD0C4CFB5DF28F0BADF18F0952386
:100A600009F0A6CFABCF1124EECFCADFA0F3959F3C
:100A7000D1F3950F50E0551F629FF001729FBB2785
:100A8000F00DB11D639FAA27F00DB11DAA1F649F31
:100A90006627B00DA11D661F829F2227B00DA11DE4
:100AA000621F739FB00DA11D621F839FA00D611D6A
:100AB000221F749F3327A00D611D231F849F600D8B
:100AC000211D822F762F6A2F11249F5750408AF0C4
:100AD000E1F088234AF0EE0FFF1FBB1F661F771F50
:100AE000881F91505040A9F79E3F510570F060CF8C
:100AF000AACF5F3FECF3983EDCF386957795679538
:100B0000B795F795E7959F5FC1F7FE2B880F911D6D
:100B10009695879597F90895FA01EE0FFF1F309685
:100B20002105310599F16115710561F48038BFE344
:100B30009B0749F168949038810561F08038BFEFD8
:100B40009B0741F0992342F5FF3FE105310521055F
:100B500011F1E8940894E795D901AA2329F4AB2F61
:100B6000BE2FF85FD0F310C0FF5F70F4A695E0F7DA
:100B7000F73950F019F0FF3A38F49F779F930CD073
:100B80000F9007FC905808953EF018CF60E070E099
:100B900080E89FE308954FE79F775F934F933F93DC
:100BA0002F939ED02F913F914F915F9152DF05C0BF
:100BB00019F40EF0FDCE46CF01CF2ADFC8F39638E8
:100BC000C0F707F80F92E8942BE33AEA48EB5FE7A7
:100BD0004EDF0F920F920F924DB75EB70F92C0D0BB
:100BE000E4EEF0E016D04F915F91EF91FF91E59523
:100BF000EE1FFF1F49F0FE57E0684427EE0F441F29
:100C0000FA95E1F74195550B32D00F9007FE26C0BB
:100C10000895DF93CF931F930F93FF92EF92DF928C
:100C20007B018C01689405C0DA2EEF011EDFFE0106
:100C3000E894A5912591359145915591AEF3EF0139
:100C4000D4D0FE019701A801DA9479F7DF90EF90F4
:100C5000FF900F911F91CF91DF9108959B01AC01FF
:100C600060E070E080E89FE3CDCDA2CE11C1D0DE80
:100C7000E8F39923D9F3940F511DBBF391505040E1
:100C800094F059F0882332F0660F771F881F915037
:100C90005040C1F79E3F510544F7880F911D96952E
:100CA000879597F908955F3FACF0983E9CF0BB277D
:100CB000869577956795B79508F4B1609395C1F7D8
:100CC000BB0F58F711F460FFE8CF6F5F7F4F8F4F76
:100CD0009F4FE3CFB8CE0EF0DBC070CE689468CEE5
:100CE00097DEC8F39923D1F3C6F3DF93CF931F9315
:100CF0000F93FF92C92FDD2788232AF02197660FD3
:100D0000771F881FDAF720E030E040E85FEB9FE3D1
:100D1000883920F0803E30F021968F7755D0ECE076
:100D2000F1E003C051D0E9E3F1E073DF8B01BE01D4
:100D3000EC01FB2E6F5771097595771F880B990B86
:100D4000FCDD28E132E741E35FE38FDEAF2D980160
:100D5000AE01FF900F911F91CF91DF9146D03FCE12
:100D6000FA01DC01AA0FBB1F9B01AC01BF5728F49D
:100D700022273327442750781FC0B75188F4AB2F60
:100D80000024469537952795011CA395D2F30020A2
:100D900069F0220F331F441FB395DAF30DD013C04F
:100DA00061307105A0E88A07B94630F49B01AC01B7
:100DB0006627772788279078309621F02083318323
:100DC0004283538308955058BB27AA270ED007CEDD
:100DD000F8DD30F0FDDD20F031F49F3F11F41EF41A
:100DE000EDCD0EF4E095E7FBE3CDE92F09DE80F3CE
:100DF000BA17620773078407950718F071F49EF518
:100E000021CE0EF4E0950B2EBA2FA02D0B01B901C7
:100E100090010C01CA01A0011124FF27591B99F070
:100E2000593F50F4503E68F11A16F040A22F232F7C
:100E3000342F4427585FF3CF469537952795A795CC
:100E4000F0405395C9F77EF41F16BA0B620B730B73
:100E5000840BBAF09150A1F0FF0FBB1F661F771FE4
:100E6000881FC2F70EC0BA0F621F731F841F48F499
:100E7000879577956795B795F7959E3F08F0B3CF1F
:100E80009395880F08F09927EE0F97958795089509
:100E90009F3F31F0915020F4879577956795B795EE
:100EA000880F911D9695879597F90895FC018827DD
:100EB0009927E89421912032E9F3293010F02E305F
:100EC000C8F32B3239F02D3231F4689403C00BD0C3
:100ED000820F911D219120532A30C8F31EF4909562
:100EE00081959F4F08957AE0979F902D879F802D41
:100EF000910D112408950F931F93CF93DF93CDB7D6
:100F0000DEB72E970FB6F894DEBF0FBECDBF0E89A9
:100F10001F8986E08C831A8309838FEF9FE79E8366
:100F20008D83AE01465E5F4F688D798DCE0101964F
:100F300010D0EF81F885E00FF11F10822E960FB6CA
:100F4000F894DEBF0FBECDBFDF91CF911F910F91FF
:100F500008952F923F924F925F926F927F928F925D
:100F60009F92AF92BF92CF92DF92EF92FF920F9338
:100F70001F93CF93DF93CDB7DEB72B970FB6F894BF
:100F8000DEBF0FBECDBF6C017B018A01FC01178261
:100F90001682838181FFBFC1CE0101963C01F6011B
:100FA0009381F70193FD859193FF81917F018823C0
:100FB00009F4ADC1853239F493FD859193FF819198
:100FC0007F01853221F4B60190E0D6D1E8CF912C93
:100FD000212C312CFFE1F315D8F08B3279F038F465
:100FE000803279F08332A1F4232D20611DC08D322F
:100FF00061F0803369F4232D216016C0832D826057
:10100000382EE32DE4603E2E2AC0F32DF8601DC07B
:1010100037FC2DC020ED280F2A3040F08E32B9F475
:1010200036FC75C1232D2064322E19C036FE06C051
:101030008AE0989E200D1124922E11C0EAE02E9E87
:10104000200D1124222EF32DF0623F2E08C08C3685
:1010500021F4832D8068382E02C0883641F4F701D0
:1010600093FD859193FF81917F018111B3CF982FDB
:101070009F7D9554933028F40C5F1F4F9FE3998315
:101080000DC0833631F0833771F0833509F055C0D8
:1010900020C0F801808189830E5F1F4F88248394CC
:1010A000912C530112C02801F2E04F0E511CF8019F
:1010B000A080B18036FE03C0692D70E002C06FEFE2
:1010C0007FEFC5014ED14C018201F32DFF773F2EFA
:1010D00015C0280122E0420E511CF801A080B18009
:1010E00036FE03C0692D70E002C06FEF7FEFC501CF
:1010F0002DD14C01F32DF0683F2E820133FC19C035
:10110000822D90E088169906A0F4B60180E290E066
:1011100033D12A94F5CFF50137FC859137FE8191C3
:101120005F01B60190E028D121102A9421E0821AB3
:1011300091088114910479F7E1C0843611F0893661
:1011400039F5F80137FE07C0608171818281938192
:101150000C5F1F4F08C060817181072E000C880B47
:10116000990B0E5F1F4FF32DFF763F2E97FF09C09F
:1011700090958095709561957F4F8F4F9F4FF06848
:101180003F2E2AE030E0A30133D1882E861844C0D8
:10119000853731F4232D2F7EB22E2AE030E025C092
:1011A000932D997FB92E8F36C1F018F4883579F0D8
:1011B000AEC0803719F0883721F0A9C0E92FE0616F
:1011C000BE2EB4FE0DC0FB2DF460BF2E09C034FE50
:1011D0000AC0292F2660B22E06C028E030E005C0E4
:1011E00020E130E002C020E132E0F801B7FE07C0A4
:1011F00060817181828193810C5F1F4F06C0608185
:10120000718180E090E00E5F1F4FA301F1D0882E26
:101210008618FB2DFF773F2E36FE0DC0232D2E7F27
:10122000A22E891458F434FE0BC032FC09C0832D61
:101230008E7EA82E05C0B82CA32C03C0B82C01C0EC
:10124000B92CA4FE0FC0FE01E80DF11D8081803392
:1012500021F49A2D997EA92E09C0A2FE06C0B3944E
:10126000B39404C08A2D867809F0B394A3FC10C00F
:10127000A0FE06C0B21480F4280C922C9B180DC05E
:10128000B21458F4B60180E290E076D0B394F8CF6F
:10129000B21418F42B1802C0982C212CA4FE0FC0F5
:1012A000B60180E390E068D0A2FE16C0A1FC03C0A6
:1012B00088E790E002C088E590E0B6010CC08A2D76
:1012C000867851F0A1FE02C08BE201C080E2A7FC4B
:1012D0008DE2B60190E050D0891430F4B60180E37D
:1012E00090E04AD09A94F8CF8A94F301E80DF11D6A
:1012F0008081B60190E040D08110F6CF222009F421
:101300004ECEB60180E290E037D02A94F7CFF601B6
:101310008681978102C08FEF9FEF2B960FB6F894CE
:10132000DEBF0FBECDBFDF91CF911F910F91FF9018
:10133000EF90DF90CF90BF90AF909F908F907F9075
:101340006F905F904F903F902F900895FC01059013
:10135000615070400110D8F7809590958E0F9F1FB7
:101360000895FC016150704001900110D8F78095FC
:1013700090958E0F9F1F08950F931F93CF93DF9328
:10138000FB01238121FD03C08FEF9FEF2CC022FFC3
:1013900016C046815781248135814217530744F492
:1013A000A081B1819D012F5F3F4F318320838C93BA
:1013B000268137812F5F3F4F3783268314C08B01EF
:1013C000EC01FB010084F185E02D1995892BE1F6F4
:1013D000D80116968D919C911797019617969C931C
:1013E0008E931697CE01DF91CF911F910F910895A3
:1013F000FA01AA27283051F1203181F1E8946F9346
:101400006E7F6E5F7F4F8F4F9F4FAF4FB1E03ED0EB
:10141000B4E03CD0670F781F891F9A1FA11D680F89
:10142000791F8A1F911DA11D6A0F711D811D911DBC
:10143000A11D20D009F468943F912AE0269F112431
:101440003019305D3193DEF6CF010895462F477095
:10145000405D4193B3E00FD0C9F7F6CF462F4F70F0
:10146000405D4A3318F0495D31FD4052419302D04E
:10147000A9F7EACFB4E0A6959795879577956795F4
:10148000BA95C9F700976105710508959B01AC01F4
:101490000A2E06945795479537952795BA95C9F71B
:1014A000620F731F841F951FA01D0895F894FFCF2E
:0614B000010025640000AC
:00000001FF
